:020000040800F2
:1000000090070020CD01000865040008C503000822
:100010006104000871020008AF1000080000000031
:1000200000000000000000000000000005060008BD
:10003000A502000800000000ED0400085D070008AC
:10004000E7010008E7010008E7010008E7010008F0
:10005000E7010008E7010008E7010008E7010008E0
:10006000E7010008E7010008E7010008E7010008D0
:10007000E7010008E7010008E7010008E7010008C0
:10008000E7010008E7010008E7010008E7010008B0
:10009000E7010008E7010008E7010008E7010008A0
:1000A000E7010008E7010008E7010008E701000890
:1000B0009D080008E7010008E7010008E7010008C3
:1000C000E7010008E7010008E7010008E701000870
:1000D000E70100088D0E0008E7010008E7010008AD
:1000E000E7010008E7010008E7010008E701000850
:1000F000E7010008E7010008E7010008E701000840
:10010000E7010008E7010008E7010008E70100082F
:10011000E7010008E7010008E7010008E70100081F
:10012000E7010008E7010008E7010008E70100080F
:1001300000F002F800F03AF80AA090E8000C8244BF
:100140008344AAF10107DA4501D100F02FF8AFF29C
:10015000090EBAE80F0013F0010F18BFFB1A43F0A5
:1001600001031847BC110000DC110000103A24BF45
:1001700078C878C1FAD8520724BF30C830C144BF0C
:1001800004680C607047000000230024002500264E
:10019000103A28BF78C1FBD8520728BF30C148BFEA
:1001A0000B6070471FB51FBD10B510BD00F031F8D2
:1001B0001146FFF7F7FF00F0C7FF00F04FF803B458
:1001C000FFF7F2FF03BC00F074FF0000094880470E
:1001D00009480047FEE7FEE7FEE7FEE7FEE7FEE729
:1001E000FEE7FEE7FEE7FEE704480549054A064B41
:1001F00070470000610700083101000890010020ED
:100200009007002090030020900300207047704763
:100210007047754600F028F8AE460500694653461B
:1002200020F00700854618B020B5FFF7DDFFBDE8D8
:1002300020404FF000064FF000074FF000084FF04D
:10024000000B21F00701AC46ACE8C009ACE8C009DE
:10025000ACE8C009ACE8C0098D4670470446AFF36E
:1002600000802046FFF7ABFF0048704730010020B8
:1002700000BFFEE708B50121102000F049F907484A
:100280000088ADF8000010208DF8030003208DF8E1
:1002900002006946024800F006F808BD5000002040
:1002A0000010014070472DE9F0410246002500266C
:1002B000002000230024002791F803C00CF00F0554
:1002C00091F803C00CF0100CBCF1000F03D091F8B2
:1002D00002C04CEA050591F800C0BCF1000F31D016
:1002E000146800202BE04FF0010C0CFA00F3B1F879
:1002F00000C00CEA03069E4220D183004FF00F0C91
:100300000CFA03F7BC4305FA03FC4CEA040491F829
:1003100003C0BCF1280F06D14FF0010C0CFA00FC11
:10032000C2F814C00AE091F803C0BCF1480F05D12F
:100330004FF0010C0CFA00FCC2F810C0401C082859
:10034000D1D31460B1F800C0BCF1FF0F34DD5468A4
:1003500000202EE000F1080C4FF0010808FA0CF321
:10036000B1F800C00CEA03069E4221D183004FF091
:100370000F0C0CFA03F7BC4305FA03FC4CEA040427
:1003800091F803C0BCF1280F05D100F1080C08FA60
:100390000CF8C2F8148091F803C0BCF1480F07D1E3
:1003A00000F1080C4FF0010808FA0CF8C2F81080B0
:1003B000401C0828CED35460BDE8F08141617047ED
:1003C0000161704700BFFEE710B504461AE00F4810
:1003D000006808B9012000E000200C4908604FF4D3
:1003E000FA7000F08BFE0A48D0F8940108B9012099
:1003F00000E00020054908604FF4FA7000F07EFE2E
:10040000601E84B2002CE2DC10BD00009401234287
:100410000000234208B50121482000F079F820208F
:10042000ADF8000010208DF8030003208DF80200C5
:1004300069460948FFF737FF20210748FFF7C0FF4B
:100440002020ADF8000069460448FFF72CFF20216A
:100450000248FFF7B5FF08BD000C0140001801403D
:1004600000BFFEE77047000070B5002100230F2297
:10047000C47804B3154C246804F4E064C4F5E06463
:10048000210AC1F10403CA40447804FA03F18478D4
:100490001440214309010E4C0678A155047804F05C
:1004A0001F050124AC4005786D11AD0005F1E02574
:1004B000C5F8004109E0047804F01F050124AC40B0
:1004C000044D0678761145F8264070BD0CED00E02D
:1004D00000E400E080E100E002490143024A1160CB
:1004E000704700000000FA050CED00E070470000C6
:1004F00029B1064AD2690243044BDA6104E0034A97
:10050000D2698243014BDA6170470000001002405B
:1005100029B1064A92690243044B9A6104E0034AF6
:1005200092698243014B9A617047000000100240BB
:1005300030B500210022002400232D4D6D6805F008
:100540000C0121B1042905D0082923D105E0294D4A
:10055000056022E0274D05601FE0254D6D6805F41C
:100560007012234D6D6805F48034022505EB92422C
:100570001CB9214D554305600BE01D4D6D6805F418
:1005800000351DB11C4D5543056002E0194D554322
:10059000056002E0174D056000BF00BF144D6D6897
:1005A00005F0F0010909154D6B5C0568DD404560FB
:1005B0000F4D6D6805F4E061090A104D6B5C4568EC
:1005C000DD4085600A4D6D6805F46051C90A0B4D28
:1005D0006B5C4568DD40C560054D6D6805F44041C4
:1005E000890B074D6B5CC568B5FBF3F5056130BD44
:1005F0000010024000127A0000093D005200002065
:1006000062000020704710B500F002F810BD000035
:100610000CB50020019000903348006840F4803011
:100620003149086000BF3048006800F40030009095
:100630000198401C0190009818B90198B0F5A06F7E
:10064000F1D12948006800F4003010B10120009079
:1006500001E0002000900098012843D12348006861
:1006600040F01000214908600846006820F00300AF
:1006700008600846006840F0020008601A484068B8
:10068000194948600846406848600846406840F498
:10069000806048600846406820F47C104860084646
:1006A000406840F4E81048600846006840F08070F8
:1006B000086000BF0C48006800F000700028F9D006
:1006C0000948406820F00300074948600846406830
:1006D00040F00200486000BF0348406800F00C0092
:1006E0000828F9D10CBD0000001002400020024093
:1006F00070B50546002400BF15E0285D012808D12B
:100700000A4A32F814100A4A52F82400FFF758FE39
:1007100007E0064A32F81410054A52F82400FFF7A1
:100720004DFE601CC4B2042CE7DB70BD4800002005
:1007300038000020042808D14FF0E021096941F079
:1007400004014FF0E022116107E04FF0E021096958
:1007500021F004014FF0E022116170477047000062
:1007600010B51348006840F00100114908600846C0
:100770004068104908400E494860084600680E4924
:1007800008400B4908600846006820F48020086093
:100790000846406820F4FE0048604FF41F0088605F
:1007A000FFF731FF4FF000600449086010BD000002
:1007B000001002400000FFF8FFFFF6FE08ED00E029
:1007C00010B588B0044601210846FFF791FE4FF6A8
:1007D000FF70ADF81800ADF814400020ADF81A0015
:1007E000ADF8160005A94FF0804000F0FDFA30206A
:1007F000ADF804000120ADF806000020ADF80800B7
:1008000025480088ADF80A000220ADF80C00002051
:10081000ADF80E004FF48070ADF810000020ADF878
:10082000120001A94FF0804000F06CF900214FF058
:10083000804000F0B3F918484088ADF80A0001A9DB
:100840004FF0804000F0B4F900214FF0804000F0FC
:1008500001FA11488088ADF80A0001A94FF08040E4
:1008600000F006FA00214FF0804000F051FA0A48EB
:10087000C088ADF80A0001A94FF0804000F052FA9C
:1008800000214FF0804000F08BFA01221E219007DA
:1008900000F01EF908B010BD2400002010B50221A0
:1008A000480700F004F910B30221480700F0A0F84F
:1008B0004FF0804000F0EEF8494908804948008830
:1008C000401C4849088008460088474909888842F2
:1008D00003D15021880600F09AF844480088404A25
:1008E0001288104481B24FF0804000F066FA042173
:1008F000080700F0DCF810B30421080700F078F8CE
:100900004FF0804000F0C9F83549088035484088EC
:10091000401C344948800846408833494988884209
:1009200003D15021880600F07BF8304840882C4ADB
:100930001288104481B24FF0804000F040FA082144
:10094000C80600F0B4F810B30821C80600F050F84B
:100950004FF0804000F0A4F82149088021488088A9
:10096000401C20498880084680881F498988884221
:1009700003D15021880600F060F81C488088184A8E
:100980001288104481B24FF0804000F01AFA102112
:10099000880600F08CF810B31021880600F028F8C3
:1009A0004FF0804000F07FF80D4908800D48C08866
:1009B000401C0C49C8800846C0880B49C988884239
:1009C00003D15021880600F041F80848C088044A45
:1009D0001288104481B24FF0804000F0F4F910BD4D
:1009E00036000020140000201C00002024000020FD
:1009F000CA430282704721B1028842F0010202809C
:100A000004E002884FF6FE731A40028070470A46DF
:100A10000021018B4FF68F731940114301837047FA
:100A20000A460021018B48F6FF7319404FF6FF7309
:100A300003EA02231943018370470A460021818B90
:100A40004FF68F7319401143818370470A46002186
:100A5000818B48F6FF7319404FF6FF7303EA0223B8
:100A6000194381837047000008B501210420FFF776
:100A70004FFD0F20ADF8000018208DF80300032073
:100A80008DF8020069460248FFF70DFC08BD000022
:100A9000000801400146888E70470146088F704764
:100AA0000146888F70470146B1F84000704730B565
:100AB0000246002000230024158A05EA01039589D7
:100AC00005EA010413B10CB1012000E0002030BDA3
:100AD0001AB183890B43838102E083898B4383812D
:100AE000704708B51C208DF8000000208DF801002B
:100AF00001208DF802008DF803006846FFF7B4FC72
:100B000008BD000070B5002400220023058C4FF6BC
:100B1000FE7635400584028C8388048B4FF68F75F2
:100B20002C40B51E2C400D882C43751E2A400D8983
:100B30002A434D882A43144DA8420BD0134DA84296
:100B400008D0134DA84205D0124DA84202D0124D34
:100B5000A84213D14FF6F7752A404D892A434FF624
:100B6000FB752A408D882A434FF6FF652B404FF6D0
:100B7000FF552B408D892B43CD892B4383800483E4
:100B8000CD888586028470BD002C01400034014070
:100B90000040014000440140004801400A46002155
:100BA000018B4FF6F7731940114301837047000022
:100BB00070B5002400220023058C4FF6EF763540F7
:100BC0000584028C8388048B48F6FF752C404FF611
:100BD000FF452C400D884FF6FF7606EA05252C438D
:100BE0004FF6DF752A400D8906EA05152A434D8820
:100BF00006EA05152A43154DA84202D0144DA84215
:100C00001DD14FF67F752A404D894FF6FF7606EAD3
:100C100005152A434FF6BF752A408D8806EA05154B
:100C20002A434FF6FF352B404FF2FF752B408D893D
:100C300006EA85052B43CD8906EA85052B4383808B
:100C40000483CD880587028470BD0000002C01401C
:100C5000003401400A460021018B4FF2FF73194016
:100C60004FF6FF7303EA0223194301837047000024
:100C700070B5002400220023058C4FF6FF66354036
:100C80000584028C8388848B4FF68F752C404FF639
:100C9000FC752C400D882C434FF6FF552A400D89DA
:100CA0004FF6FF7606EA05252A434D8806EA052514
:100CB0002A43154DA84202D0144DA8421DD14FF22F
:100CC000FF752A404D894FF6FF7606EA05252A432F
:100CD0004FF6FF352A408D8806EA05252A434EF651
:100CE000FF752B404DF6FF752B408D8906EA0515E3
:100CF0002B43CD8906EA05152B4383808483CD8859
:100D00008587028470BD0000002C01400034014042
:100D10000A460021818B4FF6F773194011438183F6
:100D20007047000070B5002200230024058C4EF6A9
:100D3000FF7635400584038C8488828B48F6FF75E6
:100D40002A404FF6FF452A400D884FF6FF7606EA07
:100D500005252A434DF6FF752B400D8906EA05351A
:100D60002B434D8806EA05352B430B4DA84202D094
:100D70000A4DA84208D14BF6FF752C408D894FF6DD
:100D8000FF7606EA85152C4384808283CD88A0F8FF
:100D90004050038470BD0000002C0140003401402D
:100DA0000A460021818B4FF2FF7319404FF6FF7303
:100DB00003EA0223194381837047818670470187C4
:100DC000704781877047A0F84010704710B5002128
:100DD0004FF08040FFF70FFE10BD10B501218807CE
:100DE000FFF709FE10BD0000002202881D4B98424B
:100DF0000ED01D4B98420BD0B0F1804F08D01B4B4A
:100E0000984205D01A4B984202D01A4B984204D10E
:100E10004FF68F731A404B881A43174B984207D0EE
:100E2000164B984204D04FF6FF431A40CB881A4322
:100E300002808B8883850B8803850A4B98420BD0F0
:100E4000094B984208D00E4B984205D00D4B984262
:100E500002D00D4B984201D10B7A03860123838285
:100E600070470000002C01400034014000040040A5
:100E700000080040000C004000100040001400403A
:100E800000400140004401400048014010B540F2DC
:100E900025511D4800F04AF810B31B4800F002F934
:100EA000C4B21A48008800F40040C8B91748008846
:100EB00000F4804060B10A2C03D000201349088060
:100EC00020E01248008840F400401049088019E0F2
:100ED0000D2C06D10D48008840F480400B49088055
:100EE00010E00A480088C0F30D0009490C54074877
:100EF0000088401C0549088008460088C72801DD95
:100F00000020088010BD000000380140340000209F
:100F10006800002021B1828942F40052828104E0FD
:100F200082894DF6FF731A408281704770B5024680
:100F3000002400230025002040F66A16B14200D1AB
:100F400000BFC1F3421501F01F03012606FA03F3A7
:100F5000012D02D19689334006E0022D02D1168A76
:100F6000334001E0968A33400C12012606FA04F45D
:100F70001688344013B10CB1012000E0002070BD90
:100F8000F0B50346002400260025002040F66A172D
:100F9000B94200D100BF1846C1F3421401F01F0648
:100FA000012707FA06F5012C01D10C3004E0022CD0
:100FB00001D1103000E014301AB107682F430760E8
:100FC00002E00768AF430760F0BD00002DE9F0477D
:100FD00086B005460E460024A24600BFA146002763
:100FE000B08900B100BF2F462C8A4CF6FF70044038
:100FF000F08804432C82AC894EF6F3100440B0888C
:1010000031890843718908430443AC81AC8A4FF6A7
:10101000FF400440B0890443AC8201A8FFF788FA7E
:101020001F48874202D1DDF810A001E0DDF80CA0D6
:10103000A88900F4004040B10AEBCA0000EB0A1096
:1010400031684900B0FBF1F807E00AEBCA0000EB99
:101050000A1031688900B0FBF1F86420B8FBF0F0A9
:1010600004012009642101FB1089A88900F40040D3
:1010700040B1322000EBC900B0FBF1F000F00700F6
:10108000044308E0322000EB09106421B0FBF1F0CA
:1010900000F00F0004432C8106B0BDE8F08700008B
:1010A0000038014001468888C0F30800704700BF3F
:1010B000FEE7014600BF704710B56FF00400FFF770
:1010C00039FB0A4800680A49B0FBF1F00949087089
:1010D0000846007800EB4001C1EBC0104FF6FF71ED
:1010E00001EAC0000449088010BD00000000002093
:1010F00000127A002C0000202E0000200146114A28
:1011000012884A434FF0E0235A6100229A611A463E
:10111000126942F001021A6100BF4FF0E02210692B
:1011200000F001021AB100F48032002AF5D04FF02D
:10113000E022126922F001024FF0E0231A6100223E
:101140009A6170472E00002008B500243DA0006879
:1011500000904FF4A060FFF7BFF9FFF7ADFFFFF776
:1011600059F94FF4E13000F08BF8FFF783F8684647
:10117000FFF7BEFAFFF778FCFFF7B3FC4720FFF755
:101180001FFB0220FFF720F95BE02F48008800F4E6
:10119000004000284AD02D480078612804D06328F8
:1011A00015D064283DD12AE00320FFF70DF9002473
:1011B00005E00020264921F81400601CC4B2042C6C
:1011C000F7DB4720FFF7FCFAFFF707FE2AE00220D3
:1011D000FFF7FAF800240AE06000401CC1B21B4887
:1011E00000F03CF81B4921F81400601CC4B2042C28
:1011F000F2DBFFF7EBFD4720FFF7E2FA12E00220F7
:10120000FFF7E2F8012406E01048015D601E0DF8CA
:101210000010601CC4B2052CF6DB6846FFF768FAC4
:1012200000E000BF00BF0020074908806420FFF7EE
:1012300065FF0948006808B9012000E00020064960
:101240000860A2E7000100013400002068000020CF
:1012500014000020240000209481214210B5024691
:101260000B460021002000BF06E05C18145D04EB73
:101270000024A0B24C1CE1B20429F6DB10BD000032
:1012800010B586B00446012144F20400FFF740F98E
:101290004FF40070ADF8140003208DF816001820EC
:1012A0008DF8170005A91C48FEF7FDFF4FF480607C
:1012B000ADF8140004208DF8170005A91648FEF7B4
:1012C000F2FF25208DF8000003208DF801008DF835
:1012D000020001208DF803006846FFF7C5F801946D
:1012E0000020ADF80800ADF80A00ADF80C00ADF82C
:1012F00010000C20ADF80E0001A90848FFF766FEAB
:10130000012240F225510548FFF73AFE012103482A
:10131000FFF700FE06B010BD000801400038014094
:101320004013000800000020680000006C01000865
:10133000A8130008680000202807000088010008A2
:1013400000A24A04000000000000000001020304A3
:101350000607080900000000000000001027204ECA
:101360001027204EF401F401F401F4010000000004
:1013700000000000000000000010014000100140CB
:10138000001001400010014002000400080010009D
:101390001E0000000000010203040102030406070E
:0813A000080902040608000020
:0400000508000131BD
:00000001FF
