:020000040800F2
:1000000078070020CD01000865040008C50300083A
:100010006104000871020008F70D000800000000EC
:1000200000000000000000000000000005060008BD
:10003000A502000800000000ED0400085D070008AC
:10004000E7010008E7010008E7010008E7010008F0
:10005000E7010008E7010008E7010008E7010008E0
:10006000E7010008E7010008E7010008E7010008D0
:10007000E7010008E7010008E7010008E7010008C0
:10008000E7010008E7010008E7010008E7010008B0
:10009000E7010008E7010008E7010008E7010008A0
:1000A000E7010008E7010008E7010008E701000890
:1000B000C1070008E7010008E7010008E7010008A0
:1000C000E7010008E7010008E7010008E701000870
:1000D000E7010008D50B0008E7010008E701000868
:1000E000E7010008E7010008E7010008E701000850
:1000F000E7010008E7010008E7010008E701000840
:10010000E7010008E7010008E7010008E70100082F
:10011000E7010008E7010008E7010008E70100081F
:10012000E7010008E7010008E7010008E70100080F
:1001300000F002F800F03AF80AA090E8000C8244BF
:100140008344AAF10107DA4501D100F02FF8AFF29C
:10015000090EBAE80F0013F0010F18BFFB1A43F0A5
:1001600001031847EC0E00000C0F0000103A24BFEA
:1001700078C878C1FAD8520724BF30C830C144BF0C
:1001800004680C607047000000230024002500264E
:10019000103A28BF78C1FBD8520728BF30C148BFEA
:1001A0000B6070471FB51FBD10B510BD00F031F8D2
:1001B0001146FFF7F7FF00F06BFE00F04FF803B4B5
:1001C000FFF7F2FF03BC00F018FE0000094880476B
:1001D00009480047FEE7FEE7FEE7FEE7FEE7FEE729
:1001E000FEE7FEE7FEE7FEE704480549054A064B41
:1001F0007047000061070008310100087801002005
:1002000078070020780300207803002070477047AB
:100210007047754600F028F8AE460500694653461B
:1002200020F00700854618B020B5FFF7DDFFBDE8D8
:1002300020404FF000064FF000074FF000084FF04D
:10024000000B21F00701AC46ACE8C009ACE8C009DE
:10025000ACE8C009ACE8C0098D4670470446AFF36E
:1002600000802046FFF7ABFF0048704714010020D4
:1002700000BFFEE708B50121102000F049F907484A
:100280000088ADF8000010208DF8030003208DF8E1
:1002900002006946024800F006F808BD340000205C
:1002A0000010014070472DE9F0410246002500266C
:1002B000002000230024002791F803C00CF00F0554
:1002C00091F803C00CF0100CBCF1000F03D091F8B2
:1002D00002C04CEA050591F800C0BCF1000F31D016
:1002E000146800202BE04FF0010C0CFA00F3B1F879
:1002F00000C00CEA03069E4220D183004FF00F0C91
:100300000CFA03F7BC4305FA03FC4CEA040491F829
:1003100003C0BCF1280F06D14FF0010C0CFA00FC11
:10032000C2F814C00AE091F803C0BCF1480F05D12F
:100330004FF0010C0CFA00FCC2F810C0401C082859
:10034000D1D31460B1F800C0BCF1FF0F34DD5468A4
:1003500000202EE000F1080C4FF0010808FA0CF321
:10036000B1F800C00CEA03069E4221D183004FF091
:100370000F0C0CFA03F7BC4305FA03FC4CEA040427
:1003800091F803C0BCF1280F05D100F1080C08FA60
:100390000CF8C2F8148091F803C0BCF1480F07D1E3
:1003A00000F1080C4FF0010808FA0CF8C2F81080B0
:1003B000401C0828CED35460BDE8F08141617047ED
:1003C0000161704700BFFEE710B504461AE00F4810
:1003D000006808B9012000E000200C4908604FF4D3
:1003E000FA7000F02FFD0A48D0F8940108B90120F6
:1003F00000E00020054908604FF4FA7000F022FD8B
:10040000601E84B2002CE2DC10BD00009401234287
:100410000000234208B50121482000F079F820208F
:10042000ADF8000010208DF8030003208DF80200C5
:1004300069460948FFF737FF20210748FFF7C0FF4B
:100440002020ADF8000069460448FFF72CFF20216A
:100450000248FFF7B5FF08BD000C0140001801403D
:1004600000BFFEE77047000070B5002100230F2297
:10047000C47804B3154C246804F4E064C4F5E06463
:10048000210AC1F10403CA40447804FA03F18478D4
:100490001440214309010E4C0678A155047804F05C
:1004A0001F050124AC4005786D11AD0005F1E02574
:1004B000C5F8004109E0047804F01F050124AC40B0
:1004C000044D0678761145F8264070BD0CED00E02D
:1004D00000E400E080E100E002490143024A1160CB
:1004E000704700000000FA050CED00E070470000C6
:1004F00029B1064AD2690243044BDA6104E0034A97
:10050000D2698243014BDA6170470000001002405B
:1005100029B1064A92690243044B9A6104E0034AF6
:1005200092698243014B9A617047000000100240BB
:1005300030B500210022002400232D4D6D6805F008
:100540000C0121B1042905D0082923D105E0294D4A
:10055000056022E0274D05601FE0254D6D6805F41C
:100560007012234D6D6805F48034022505EB92422C
:100570001CB9214D554305600BE01D4D6D6805F418
:1005800000351DB11C4D5543056002E0194D554322
:10059000056002E0174D056000BF00BF144D6D6897
:1005A00005F0F0010909154D6B5C0568DD404560FB
:1005B0000F4D6D6805F4E061090A104D6B5C4568EC
:1005C000DD4085600A4D6D6805F46051C90A0B4D28
:1005D0006B5C4568DD40C560054D6D6805F44041C4
:1005E000890B074D6B5CC568B5FBF3F5056130BD44
:1005F0000010024000127A0000093D003600002081
:1006000046000020704710B500F002F810BD000051
:100610000CB50020019000903348006840F4803011
:100620003149086000BF3048006800F40030009095
:100630000198401C0190009818B90198B0F5A06F7E
:10064000F1D12948006800F4003010B10120009079
:1006500001E0002000900098012843D12348006861
:1006600040F01000214908600846006820F00300AF
:1006700008600846006840F0020008601A484068B8
:10068000194948600846406848600846406840F498
:10069000806048600846406820F47C104860084646
:1006A000406840F4E81048600846006840F08070F8
:1006B000086000BF0C48006800F000700028F9D006
:1006C0000948406820F00300074948600846406830
:1006D00040F00200486000BF0348406800F00C0092
:1006E0000828F9D10CBD0000001002400020024093
:1006F00070B50546002400BF15E0285D012808D12B
:100700000A4A32F814100A4A52F82400FFF758FE39
:1007100007E0064A32F81410054A52F82400FFF7A1
:100720004DFE601CC4B2022CE7DB70BD300000201F
:1007300028000020042808D14FF0E021096941F089
:1007400004014FF0E022116107E04FF0E021096958
:1007500021F004014FF0E022116170477047000062
:1007600010B51348006840F00100114908600846C0
:100770004068104908400E494860084600680E4924
:1007800008400B4908600846006820F48020086093
:100790000846406820F4FE0048604FF41F0088605F
:1007A000FFF731FF4FF000600449086010BD000002
:1007B000001002400000FFF8FFFFF6FE08ED00E029
:1007C00010B50221480700F0C3F800B30221480722
:1007D00000F040F84FF0804000F0B4F8194908806C
:1007E00019480088401C18490880084600881749A5
:1007F0000988884201D100F08EF915480088114A15
:100800001288104481B24FF0804000F080F904213A
:10081000080700F09DF898B10421080700F01AF8C5
:100820004FF0804000F091F8064908800848408861
:100830000A461288104481B24FF0804000F069F9F6
:1008400010BD00002600002014000020160000202B
:1008500018000020CA430282704721B1028842F08A
:100860000102028004E002884FF6FE731A40028003
:100870007047000010B588B0044601210846FFF714
:1008800037FE4FF6FF70ADF81800ADF814400020A9
:10089000ADF81A00ADF8160005A94FF0804000F041
:1008A00047F93020ADF804000120ADF80600002023
:1008B000ADF8080017480088ADF80A000220ADF82E
:1008C0000C000020ADF80E004FF48070ADF8100061
:1008D0000020ADF8120001A94FF0804000F062F84E
:1008E00000214FF0804000F0A9F80A484088ADF898
:1008F0000A0001A94FF0804000F0AAF800214FF053
:10090000804000F0F7F801220621900700F031F84E
:1009100008B010BD1800002008B501210420FFF721
:10092000F7FD0320ADF8000018208DF80300032028
:100930008DF8020069460248FFF7B5FC08BD0000CB
:10094000000801400146888E70470146088F7047B5
:1009500030B50246002000230024158A05EA010371
:10096000958905EA010413B10CB1012000E00020D3
:1009700030BD1AB183890B43838102E083898B43A5
:100980008381704708B51C208DF8000000208DF889
:10099000010001208DF802008DF803006846FFF782
:1009A00063FD08BD70B5002400220023058C4FF6BE
:1009B000FE7635400584028C8388048B4FF68F7554
:1009C0002C40B51E2C400D882C43751E2A400D89E5
:1009D0002A434D882A43144DA8420BD0134DA842F8
:1009E00008D0134DA84205D0124DA84202D0124D96
:1009F000A84213D14FF6F7752A404D892A434FF686
:100A0000FB752A408D882A434FF6FF652B404FF631
:100A1000FF552B408D892B43CD892B438380048345
:100A2000CD888586028470BD002C014000340140D1
:100A30000040014000440140004801400A460021B6
:100A4000018B4FF6F7731940114301837047000083
:100A500070B5002400220023058C4FF6EF76354058
:100A60000584028C8388048B48F6FF752C404FF672
:100A7000FF452C400D884FF6FF7606EA05252C43EE
:100A80004FF6DF752A400D8906EA05152A434D8881
:100A900006EA05152A43154DA84202D0144DA84276
:100AA0001DD14FF67F752A404D894FF6FF7606EA35
:100AB00005152A434FF6BF752A408D8806EA0515AD
:100AC0002A434FF6FF352B404FF2FF752B408D899F
:100AD00006EA85052B43CD8906EA85052B438380ED
:100AE0000483CD880587028470BD0000002C01407E
:100AF000003401400A460021018B4FF2FF73194078
:100B00004FF6FF7303EA022319430183704781867E
:100B100070470187704710B500214FF08040FFF704
:100B20009CFE10BD10B501218807FFF796FE10BD91
:100B3000002202881D4B98420ED01D4B98420BD0CC
:100B4000B0F1804F08D01B4B984205D01A4B984209
:100B500002D01A4B984204D14FF68F731A404B883B
:100B60001A43174B984207D0164B984204D04FF6C1
:100B7000FF431A40CB881A4302808B8883850B88F9
:100B800003850A4B98420BD0094B984208D00E4B74
:100B9000984205D00D4B984202D00D4B984201D19E
:100BA0000B7A03860123838270470000002C0140EA
:100BB000003401400004004000080040000C0040E8
:100BC000001000400014004000400140004401407B
:100BD0000048014010B540F225511D4800F04AF888
:100BE00010B31B4800F002F9C4B21A48008800F4A0
:100BF0000040C8B91748008800F4804060B10A2C52
:100C000003D000201349088020E01248008840F4F7
:100C100000401049088019E00D2C06D10D480088CD
:100C200040F480400B49088010E00A480088C0F377
:100C30000D0009490C5407480088401C05490880EC
:100C400008460088C72801DD0020088010BD00008C
:100C500000380140240000204C00002021B182898E
:100C600042F40052828104E082894DF6FF731A40FB
:100C70008281704770B502460024002300250020C1
:100C800040F66A16B14200D100BFC1F3421501F02F
:100C90001F03012606FA03F3012D02D19689334082
:100CA00006E0022D02D1168A334001E0968A3340D5
:100CB0000C12012606FA04F41688344013B10CB164
:100CC000012000E0002070BDF0B50346002400269E
:100CD0000025002040F66A17B94200D100BF18462F
:100CE000C1F3421401F01F06012707FA06F5012C93
:100CF00001D10C3004E0022C01D1103000E014309E
:100D00001AB107682F43076002E00768AF43076026
:100D1000F0BD00002DE9F04786B005460E460024E0
:100D2000A24600BFA1460027B08900B100BF2F46F0
:100D30002C8A4CF6FF700440F08804432C82AC8966
:100D40004EF6F3100440B088318908437189084396
:100D50000443AC81AC8A4FF6FF400440B0890443A1
:100D6000AC8201A8FFF7E4FB1F48874202D1DDF8FF
:100D700010A001E0DDF80CA0A88900F4004040B10B
:100D80000AEBCA0000EB0A1031684900B0FBF1F829
:100D900007E00AEBCA0000EB0A1031688900B0FBDB
:100DA000F1F86420B8FBF0F004012009642101FB94
:100DB0001089A88900F4004040B1322000EBC9003E
:100DC000B0FBF1F000F00700044308E0322000EB34
:100DD00009106421B0FBF1F000F00F0004432C81F6
:100DE00006B0BDE8F0870000003801400146888861
:100DF000C0F30800704700BFFEE7014600BF704720
:100E000010B56FF00400FFF795FC0A4800680A4926
:100E1000B0FBF1F0094908700846007800EB40018A
:100E2000C1EBC0104FF6FF7101EAC0000449088011
:100E300010BD00000000002000127A001C000020FD
:100E40001E0000200146114A12884A434FF0E02359
:100E50005A6100229A611A46126942F001021A612F
:100E600000BF4FF0E022106900F001021AB100F457
:100E70008032002AF5D04FF0E022126922F0010200
:100E80004FF0E0231A6100229A6170471E00002093
:100E900008B5002437A0006800904FF4A060FFF769
:100EA0001BFBFFF7ADFFFFF7B5FA4FF4E13000F0A1
:100EB0007FF8FFF7DFF96846FFF71AFCFFF72CFD14
:100EC000FFF760FD4720FFF7D5FC51E02A48008876
:100ED00000F40040002840D028480078612806D05F
:100EE00063280DD0642823D0732831D12FE003204C
:100EF000FFF76AFA002022490880FFF713FE28E076
:100F00000520FFF761FA00240AE06000401CC1B22E
:100F10001A4800F03BF81B4921F81400601CC4B2C9
:100F2000022CF2DBFFF7F7FD4720FFF7A3FC10E0F0
:100F3000012406E01148015D601E0DF80010601CE0
:100F4000C4B2032CF6DB6846FFF7D2FB01E000E0F9
:100F500000BF00BF0020084908806420FFF772FF2F
:100F60000948006808B9012000E00020064908602F
:100F7000ACE7000000010000240000204C0000202D
:100F800014000020180000209481214210B5024670
:100F90000B460021002000BF06E05C18145D04EB46
:100FA0000024A0B24C1CE1B20229F6DB10BD000007
:100FB00010B586B00446012144F20400FFF7A8FAF8
:100FC0004FF40070ADF8140003208DF816001820BF
:100FD0008DF8170005A91C48FFF765F94FF48060EC
:100FE000ADF8140004208DF8170005A91648FFF786
:100FF0005AF925208DF8000003208DF801008DF8A6
:10100000020001208DF803006846FFF72DFA0194D5
:101010000020ADF80800ADF80A00ADF80C00ADF8FE
:1010200010000C20ADF80E0001A90848FFF772FE71
:10103000012240F225510548FFF746FE01210348F1
:10104000FFF70CFE06B010BD00080140003801405B
:1010500070100008000000204C0000006C01000827
:10106000BC1000084C0000202C070000880100087C
:1010700000A24A0400000000000000000102030476
:1010800006070809000010278813881300000000D5
:1010900000000000000000000010014000100140AE
:1010A0000200040006000000000001020304010227
:0C10B000030406070809020406080000FB
:0400000508000131BD
:00000001FF
